{
  "_format": "hh-sol-artifact-1",
  "contractName": "SolidFundr",
  "sourceName": "contracts/SolidFundr.sol",
  "abi": [
    {
      "inputs": [],
      "name": "AddressNotValid",
      "type": "error"
    },
    {
      "inputs": [],
      "name": "AmountLessThanZero",
      "type": "error"
    },
    {
      "inputs": [],
      "name": "FundAlreadyCompleted",
      "type": "error"
    },
    {
      "inputs": [],
      "name": "FundDoesNotExist",
      "type": "error"
    },
    {
      "inputs": [],
      "name": "SendAmountFailed",
      "type": "error"
    },
    {
      "anonymous": false,
      "inputs": [
        {
          "indexed": false,
          "internalType": "uint256",
          "name": "amount",
          "type": "uint256"
        },
        {
          "indexed": false,
          "internalType": "address",
          "name": "author",
          "type": "address"
        }
      ],
      "name": "DonationCreated",
      "type": "event"
    },
    {
      "anonymous": false,
      "inputs": [
        {
          "indexed": false,
          "internalType": "uint256",
          "name": "id",
          "type": "uint256"
        }
      ],
      "name": "FundCompleted",
      "type": "event"
    },
    {
      "anonymous": false,
      "inputs": [
        {
          "indexed": false,
          "internalType": "uint256",
          "name": "id",
          "type": "uint256"
        }
      ],
      "name": "FundCreated",
      "type": "event"
    },
    {
      "stateMutability": "payable",
      "type": "fallback"
    },
    {
      "inputs": [
        {
          "internalType": "address",
          "name": "",
          "type": "address"
        }
      ],
      "name": "contributionAuthors",
      "outputs": [
        {
          "internalType": "uint256",
          "name": "",
          "type": "uint256"
        }
      ],
      "stateMutability": "view",
      "type": "function"
    },
    {
      "inputs": [
        {
          "internalType": "uint256",
          "name": "",
          "type": "uint256"
        },
        {
          "internalType": "uint256",
          "name": "",
          "type": "uint256"
        }
      ],
      "name": "contributionFunds",
      "outputs": [
        {
          "internalType": "uint256",
          "name": "amount",
          "type": "uint256"
        },
        {
          "internalType": "address",
          "name": "author",
          "type": "address"
        }
      ],
      "stateMutability": "view",
      "type": "function"
    },
    {
      "inputs": [
        {
          "internalType": "uint256",
          "name": "targetAmount",
          "type": "uint256"
        },
        {
          "internalType": "address",
          "name": "targetAddress",
          "type": "address"
        },
        {
          "internalType": "string",
          "name": "title",
          "type": "string"
        },
        {
          "internalType": "string",
          "name": "description",
          "type": "string"
        }
      ],
      "name": "createFund",
      "outputs": [],
      "stateMutability": "nonpayable",
      "type": "function"
    },
    {
      "inputs": [
        {
          "internalType": "uint256",
          "name": "fundId",
          "type": "uint256"
        }
      ],
      "name": "donate",
      "outputs": [],
      "stateMutability": "payable",
      "type": "function"
    },
    {
      "inputs": [],
      "name": "fundCounter",
      "outputs": [
        {
          "internalType": "uint256",
          "name": "",
          "type": "uint256"
        }
      ],
      "stateMutability": "view",
      "type": "function"
    },
    {
      "inputs": [
        {
          "internalType": "address",
          "name": "author",
          "type": "address"
        }
      ],
      "name": "getContributions",
      "outputs": [
        {
          "internalType": "uint256",
          "name": "",
          "type": "uint256"
        }
      ],
      "stateMutability": "view",
      "type": "function"
    },
    {
      "inputs": [
        {
          "internalType": "uint256",
          "name": "fundId",
          "type": "uint256"
        }
      ],
      "name": "getDonations",
      "outputs": [
        {
          "components": [
            {
              "internalType": "uint256",
              "name": "amount",
              "type": "uint256"
            },
            {
              "internalType": "address",
              "name": "author",
              "type": "address"
            }
          ],
          "internalType": "struct SolidFundr.Donation[]",
          "name": "",
          "type": "tuple[]"
        }
      ],
      "stateMutability": "view",
      "type": "function"
    },
    {
      "inputs": [],
      "name": "getFunds",
      "outputs": [
        {
          "components": [
            {
              "internalType": "uint256",
              "name": "id",
              "type": "uint256"
            },
            {
              "internalType": "address",
              "name": "creator",
              "type": "address"
            },
            {
              "internalType": "uint256",
              "name": "creationDate",
              "type": "uint256"
            },
            {
              "internalType": "uint256",
              "name": "amount",
              "type": "uint256"
            },
            {
              "internalType": "uint256",
              "name": "targetAmount",
              "type": "uint256"
            },
            {
              "internalType": "address",
              "name": "targetAddress",
              "type": "address"
            },
            {
              "internalType": "string",
              "name": "title",
              "type": "string"
            },
            {
              "internalType": "string",
              "name": "description",
              "type": "string"
            },
            {
              "internalType": "bool",
              "name": "completed",
              "type": "bool"
            }
          ],
          "internalType": "struct SolidFundr.Fund[]",
          "name": "",
          "type": "tuple[]"
        }
      ],
      "stateMutability": "view",
      "type": "function"
    },
    {
      "inputs": [
        {
          "internalType": "uint256",
          "name": "",
          "type": "uint256"
        }
      ],
      "name": "listFunds",
      "outputs": [
        {
          "internalType": "uint256",
          "name": "id",
          "type": "uint256"
        },
        {
          "internalType": "address",
          "name": "creator",
          "type": "address"
        },
        {
          "internalType": "uint256",
          "name": "creationDate",
          "type": "uint256"
        },
        {
          "internalType": "uint256",
          "name": "amount",
          "type": "uint256"
        },
        {
          "internalType": "uint256",
          "name": "targetAmount",
          "type": "uint256"
        },
        {
          "internalType": "address",
          "name": "targetAddress",
          "type": "address"
        },
        {
          "internalType": "string",
          "name": "title",
          "type": "string"
        },
        {
          "internalType": "string",
          "name": "description",
          "type": "string"
        },
        {
          "internalType": "bool",
          "name": "completed",
          "type": "bool"
        }
      ],
      "stateMutability": "view",
      "type": "function"
    },
    {
      "stateMutability": "payable",
      "type": "receive"
    }
  ],
  "bytecode": "0x608060405234801561001057600080fd5b50611c6b806100206000396000f3fe60806040526004361061008a5760003560e01c806376867eae1161005957806376867eae1461017d5780639e6c8e1b146101a8578063cba035e5146101e5578063d110eabc1461020e578063f14faf6f1461024c57610091565b80631af83c22146100935780633f19d043146100d85780634d9b373514610115578063596d9ce21461014057610091565b3661009157005b005b34801561009f57600080fd5b506100ba60048036038101906100b59190611135565b610268565b6040516100cf9998979695949392919061125d565b60405180910390f35b3480156100e457600080fd5b506100ff60048036038101906100fa9190611324565b610423565b60405161010c9190611351565b60405180910390f35b34801561012157600080fd5b5061012a61046c565b6040516101379190611571565b60405180910390f35b34801561014c57600080fd5b5061016760048036038101906101629190611135565b6106df565b6040516101749190611671565b60405180910390f35b34801561018957600080fd5b506101926107ec565b60405161019f9190611351565b60405180910390f35b3480156101b457600080fd5b506101cf60048036038101906101ca9190611324565b6107f2565b6040516101dc9190611351565b60405180910390f35b3480156101f157600080fd5b5061020c600480360381019061020791906116f8565b61080a565b005b34801561021a57600080fd5b506102356004803603810190610230919061179f565b610b33565b6040516102439291906117df565b60405180910390f35b61026660048036038101906102619190611135565b610b94565b005b6000818154811061027857600080fd5b90600052602060002090600902016000915090508060000154908060010160009054906101000a900473ffffffffffffffffffffffffffffffffffffffff16908060020154908060030154908060040154908060050160009054906101000a900473ffffffffffffffffffffffffffffffffffffffff16908060060180546102ff90611837565b80601f016020809104026020016040519081016040528092919081815260200182805461032b90611837565b80156103785780601f1061034d57610100808354040283529160200191610378565b820191906000526020600020905b81548152906001019060200180831161035b57829003601f168201915b50505050509080600701805461038d90611837565b80601f01602080910402602001604051908101604052809291908181526020018280546103b990611837565b80156104065780601f106103db57610100808354040283529160200191610406565b820191906000526020600020905b8154815290600101906020018083116103e957829003601f168201915b5050505050908060080160009054906101000a900460ff16905089565b6000600360008373ffffffffffffffffffffffffffffffffffffffff1673ffffffffffffffffffffffffffffffffffffffff168152602001908152602001600020549050919050565b60606000805480602002602001604051908101604052809291908181526020016000905b828210156106d6578382906000526020600020906009020160405180610120016040529081600082015481526020016001820160009054906101000a900473ffffffffffffffffffffffffffffffffffffffff1673ffffffffffffffffffffffffffffffffffffffff1673ffffffffffffffffffffffffffffffffffffffff1681526020016002820154815260200160038201548152602001600482015481526020016005820160009054906101000a900473ffffffffffffffffffffffffffffffffffffffff1673ffffffffffffffffffffffffffffffffffffffff1673ffffffffffffffffffffffffffffffffffffffff16815260200160068201805461059890611837565b80601f01602080910402602001604051908101604052809291908181526020018280546105c490611837565b80156106115780601f106105e657610100808354040283529160200191610611565b820191906000526020600020905b8154815290600101906020018083116105f457829003601f168201915b5050505050815260200160078201805461062a90611837565b80601f016020809104026020016040519081016040528092919081815260200182805461065690611837565b80156106a35780601f10610678576101008083540402835291602001916106a3565b820191906000526020600020905b81548152906001019060200180831161068657829003601f168201915b505050505081526020016008820160009054906101000a900460ff16151515158152505081526020019060010190610490565b50505050905090565b6060600154821061071c576040517fef284dca00000000000000000000000000000000000000000000000000000000815260040160405180910390fd5b60026000838152602001908152602001600020805480602002602001604051908101604052809291908181526020016000905b828210156107e15783829060005260206000209060020201604051806040016040529081600082015481526020016001820160009054906101000a900473ffffffffffffffffffffffffffffffffffffffff1673ffffffffffffffffffffffffffffffffffffffff1673ffffffffffffffffffffffffffffffffffffffff16815250508152602001906001019061074f565b505050509050919050565b60015481565b60036020528060005260406000206000915090505481565b60008611610844576040517f820bf1e500000000000000000000000000000000000000000000000000000000815260040160405180910390fd5b600073ffffffffffffffffffffffffffffffffffffffff168573ffffffffffffffffffffffffffffffffffffffff16036108aa576040517fd23f952100000000000000000000000000000000000000000000000000000000815260040160405180910390fd5b600060405180610120016040528060015481526020013373ffffffffffffffffffffffffffffffffffffffff168152602001428152602001600081526020018881526020018773ffffffffffffffffffffffffffffffffffffffff16815260200186868080601f016020809104026020016040519081016040528093929190818152602001838380828437600081840152601f19601f82011690508083019250505050505050815260200184848080601f016020809104026020016040519081016040528093929190818152602001838380828437600081840152601f19601f82011690508083019250505050505050815260200160001515815250905060008190806001815401808255809150506001900390600052602060002090600902016000909190919091506000820151816000015560208201518160010160006101000a81548173ffffffffffffffffffffffffffffffffffffffff021916908373ffffffffffffffffffffffffffffffffffffffff16021790555060408201518160020155606082015181600301556080820151816004015560a08201518160050160006101000a81548173ffffffffffffffffffffffffffffffffffffffff021916908373ffffffffffffffffffffffffffffffffffffffff16021790555060c0820151816006019081610a9f9190611a43565b5060e0820151816007019081610ab59190611a43565b506101008201518160080160006101000a81548160ff02191690831515021790555050507fec41606da1b7e318a73aa4bf363741fa612f34a0bdc09cf8e6b3417289ad1a51600154604051610b0a9190611351565b60405180910390a160016000815480929190610b2590611b44565b919050555050505050505050565b60026020528160005260406000208181548110610b4f57600080fd5b9060005260206000209060020201600091509150508060000154908060010160009054906101000a900473ffffffffffffffffffffffffffffffffffffffff16905082565b600034905060008111610bd3576040517f820bf1e500000000000000000000000000000000000000000000000000000000815260040160405180910390fd5b6001548210610c0e576040517fef284dca00000000000000000000000000000000000000000000000000000000815260040160405180910390fd5b6001151560008381548110610c2657610c25611b8c565b5b906000526020600020906009020160080160009054906101000a900460ff16151503610c7e576040517fc6f8bbb100000000000000000000000000000000000000000000000000000000815260040160405180910390fd5b80600360003373ffffffffffffffffffffffffffffffffffffffff1673ffffffffffffffffffffffffffffffffffffffff16815260200190815260200160002054610cc99190611bbb565b600360003373ffffffffffffffffffffffffffffffffffffffff1673ffffffffffffffffffffffffffffffffffffffff168152602001908152602001600020819055508060008381548110610d2157610d20611b8c565b5b906000526020600020906009020160030154610d3d9190611bbb565b60008381548110610d5157610d50611b8c565b5b90600052602060002090600902016003018190555060008281548110610d7a57610d79611b8c565b5b90600052602060002090600902016004015460008381548110610da057610d9f611b8c565b5b90600052602060002090600902016003015410610dc157610dc082610ebe565b5b600060405180604001604052808381526020013373ffffffffffffffffffffffffffffffffffffffff168152509050600260008481526020019081526020016000208190806001815401808255809150506001900390600052602060002090600202016000909190919091506000820151816000015560208201518160010160006101000a81548173ffffffffffffffffffffffffffffffffffffffff021916908373ffffffffffffffffffffffffffffffffffffffff16021790555050507f9b5fba485f7739d84caad84e1e07e7c9f2515477bd6b5854ecf133ce191a0a2a8233604051610eb19291906117df565b60405180910390a1505050565b6001548110610ef9576040517fef284dca00000000000000000000000000000000000000000000000000000000815260040160405180910390fd5b6001151560008281548110610f1157610f10611b8c565b5b906000526020600020906009020160080160009054906101000a900460ff16151503610f69576040517fc6f8bbb100000000000000000000000000000000000000000000000000000000815260040160405180910390fd5b6000808281548110610f7e57610f7d611b8c565b5b906000526020600020906009020160050160009054906101000a900473ffffffffffffffffffffffffffffffffffffffff1673ffffffffffffffffffffffffffffffffffffffff1660008381548110610fda57610fd9611b8c565b5b906000526020600020906009020160030154604051610ff890611c20565b60006040518083038185875af1925050503d8060008114611035576040519150601f19603f3d011682016040523d82523d6000602084013e61103a565b606091505b50509050600015158115150361107c576040517f7a1ba5cd00000000000000000000000000000000000000000000000000000000815260040160405180910390fd5b60016000838154811061109257611091611b8c565b5b906000526020600020906009020160080160006101000a81548160ff0219169083151502179055507f7bd6e90b6cd8acf906fbab872af9486c8ea9fe1bae59a00e5f9b199b33bd3bb1826040516110e99190611351565b60405180910390a15050565b600080fd5b600080fd5b6000819050919050565b611112816110ff565b811461111d57600080fd5b50565b60008135905061112f81611109565b92915050565b60006020828403121561114b5761114a6110f5565b5b600061115984828501611120565b91505092915050565b61116b816110ff565b82525050565b600073ffffffffffffffffffffffffffffffffffffffff82169050919050565b600061119c82611171565b9050919050565b6111ac81611191565b82525050565b600081519050919050565b600082825260208201905092915050565b60005b838110156111ec5780820151818401526020810190506111d1565b60008484015250505050565b6000601f19601f8301169050919050565b6000611214826111b2565b61121e81856111bd565b935061122e8185602086016111ce565b611237816111f8565b840191505092915050565b60008115159050919050565b61125781611242565b82525050565b600061012082019050611273600083018c611162565b611280602083018b6111a3565b61128d604083018a611162565b61129a6060830189611162565b6112a76080830188611162565b6112b460a08301876111a3565b81810360c08301526112c68186611209565b905081810360e08301526112da8185611209565b90506112ea61010083018461124e565b9a9950505050505050505050565b61130181611191565b811461130c57600080fd5b50565b60008135905061131e816112f8565b92915050565b60006020828403121561133a576113396110f5565b5b60006113488482850161130f565b91505092915050565b60006020820190506113666000830184611162565b92915050565b600081519050919050565b600082825260208201905092915050565b6000819050602082019050919050565b6113a1816110ff565b82525050565b6113b081611191565b82525050565b600082825260208201905092915050565b60006113d2826111b2565b6113dc81856113b6565b93506113ec8185602086016111ce565b6113f5816111f8565b840191505092915050565b61140981611242565b82525050565b6000610120830160008301516114286000860182611398565b50602083015161143b60208601826113a7565b50604083015161144e6040860182611398565b5060608301516114616060860182611398565b5060808301516114746080860182611398565b5060a083015161148760a08601826113a7565b5060c083015184820360c086015261149f82826113c7565b91505060e083015184820360e08601526114b982826113c7565b9150506101008301516114d0610100860182611400565b508091505092915050565b60006114e7838361140f565b905092915050565b6000602082019050919050565b60006115078261136c565b6115118185611377565b93508360208202850161152385611388565b8060005b8581101561155f578484038952815161154085826114db565b945061154b836114ef565b925060208a01995050600181019050611527565b50829750879550505050505092915050565b6000602082019050818103600083015261158b81846114fc565b905092915050565b600081519050919050565b600082825260208201905092915050565b6000819050602082019050919050565b6040820160008201516115d56000850182611398565b5060208201516115e860208501826113a7565b50505050565b60006115fa83836115bf565b60408301905092915050565b6000602082019050919050565b600061161e82611593565b611628818561159e565b9350611633836115af565b8060005b8381101561166457815161164b88826115ee565b975061165683611606565b925050600181019050611637565b5085935050505092915050565b6000602082019050818103600083015261168b8184611613565b905092915050565b600080fd5b600080fd5b600080fd5b60008083601f8401126116b8576116b7611693565b5b8235905067ffffffffffffffff8111156116d5576116d4611698565b5b6020830191508360018202830111156116f1576116f061169d565b5b9250929050565b60008060008060008060808789031215611715576117146110f5565b5b600061172389828a01611120565b965050602061173489828a0161130f565b955050604087013567ffffffffffffffff811115611755576117546110fa565b5b61176189828a016116a2565b9450945050606087013567ffffffffffffffff811115611784576117836110fa565b5b61179089828a016116a2565b92509250509295509295509295565b600080604083850312156117b6576117b56110f5565b5b60006117c485828601611120565b92505060206117d585828601611120565b9150509250929050565b60006040820190506117f46000830185611162565b61180160208301846111a3565b9392505050565b7f4e487b7100000000000000000000000000000000000000000000000000000000600052602260045260246000fd5b6000600282049050600182168061184f57607f821691505b60208210810361186257611861611808565b5b50919050565b7f4e487b7100000000000000000000000000000000000000000000000000000000600052604160045260246000fd5b60008190508160005260206000209050919050565b60006020601f8301049050919050565b600082821b905092915050565b6000600883026118f97fffffffffffffffffffffffffffffffffffffffffffffffffffffffffffffffff826118bc565b61190386836118bc565b95508019841693508086168417925050509392505050565b6000819050919050565b600061194061193b611936846110ff565b61191b565b6110ff565b9050919050565b6000819050919050565b61195a83611925565b61196e61196682611947565b8484546118c9565b825550505050565b600090565b611983611976565b61198e818484611951565b505050565b5b818110156119b2576119a760008261197b565b600181019050611994565b5050565b601f8211156119f7576119c881611897565b6119d1846118ac565b810160208510156119e0578190505b6119f46119ec856118ac565b830182611993565b50505b505050565b600082821c905092915050565b6000611a1a600019846008026119fc565b1980831691505092915050565b6000611a338383611a09565b9150826002028217905092915050565b611a4c826111b2565b67ffffffffffffffff811115611a6557611a64611868565b5b611a6f8254611837565b611a7a8282856119b6565b600060209050601f831160018114611aad5760008415611a9b578287015190505b611aa58582611a27565b865550611b0d565b601f198416611abb86611897565b60005b82811015611ae357848901518255600182019150602085019450602081019050611abe565b86831015611b005784890151611afc601f891682611a09565b8355505b6001600288020188555050505b505050505050565b7f4e487b7100000000000000000000000000000000000000000000000000000000600052601160045260246000fd5b6000611b4f826110ff565b91507fffffffffffffffffffffffffffffffffffffffffffffffffffffffffffffffff8203611b8157611b80611b15565b5b600182019050919050565b7f4e487b7100000000000000000000000000000000000000000000000000000000600052603260045260246000fd5b6000611bc6826110ff565b9150611bd1836110ff565b9250828201905080821115611be957611be8611b15565b5b92915050565b600081905092915050565b50565b6000611c0a600083611bef565b9150611c1582611bfa565b600082019050919050565b6000611c2b82611bfd565b915081905091905056fea26469706673582212200e5be6ff06fc6386b30b4de58e09e79cbdcc2563d13babd750261a315ab912aa64736f6c63430008120033",
  "linkReferences": {},
  "deployedLinkReferences": {}
}